:020000040800F2
:1000000000300020295200086D1200086F1200080D
:100010007112000873120008751200080000000039
:10002000000000000000000000000000771200083F
:1000300079120008000000007B1200087D12000801
:100040007952000879520008795200087952000864
:100050007952000879520008795200087952000854
:100060007952000879520008795200087952000844
:100070007952000879520008795200087952000834
:10008000851200089512000879520008795200087C
:100090007952000879520008795200087952000814
:1000A0007952000879520008795200087952000804
:1000B00079520008795200080000000079520008C7
:1000C000795200080000000000000000795200088A
:1000D0000000000079520008A512000879520008BB
:1000E000795200087952000800000000000000006A
:1000F0000000000000000000000000000000000000
:1001000000000000000000000000000000000000EF
:100110000000000000000000795200087952000839
:1001200000000000000000000000000000000000CF
:1001300000000000000000000000000000000000BF
:100140007952000879520008000000007952000836
:100150007952000879520008795200087952000853
:1001600079520008795200080000000000000000E9
:10017000000000000000000000000000000000007F
:080180000000000079520008A4
:1001900010B5054C237833B9044B13B10448AFF3C1
:1001A00000800123237010BD100300200000000018
:1001B000348E000808B5034B1BB103490348AFF365
:1001C000008008BD0000000014030020348E0008E9
:1001D00081F0004102E000BF83F0004330B54FEAF8
:1001E00041044FEA430594EA050F08BF90EA020F65
:1001F0001FBF54EA000C55EA020C7FEA645C7FEAF8
:10020000655C00F0E2804FEA5454D4EB5555B8BF1A
:100210006D420CDD2C4480EA020281EA030382EA8B
:10022000000083EA010180EA020281EA0303362D1D
:1002300088BF30BD11F0004F4FEA01314FF4801CF0
:100240004CEA113102D0404261EB410113F0004F02
:100250004FEA03334CEA133302D0524263EB4303B9
:1002600094EA050F00F0A780A4F10104D5F1200E57
:100270000DDB02FA0EFC22FA05F2801841F10001B2
:1002800003FA0EF2801843FA05F359410EE0A5F186
:1002900020050EF1200E012A03FA0EFC28BF4CF0B7
:1002A000020C43FA05F3C01851EBE37101F000456D
:1002B00007D54FF0000EDCF1000C7EEB00006EEB7A
:1002C0000101B1F5801F1BD3B1F5001F0CD3490804
:1002D0005FEA30004FEA3C0C04F101044FEA44525B
:1002E00012F5800F80F09A80BCF1004F08BF5FEAE2
:1002F000500C50F1000041EB045141EA050130BDC2
:100300005FEA4C0C404141EB010111F4801FA4F164
:100310000104E9D191F0000F04BF01460020B1FAB9
:1003200081F308BF2033A3F10B03B3F120020CDAF1
:100330000C3208DD02F1140CC2F10C0201FA0CF0CF
:1003400021FA02F10CE002F11402D8BFC2F1200C34
:1003500001FA02F120FA0CFCDCBF41EA0C019040EA
:10036000E41AA2BF01EB0451294330BD6FEA040433
:100370001F3C1CDA0C340EDC04F11404C4F120021E
:1003800020FA04F001FA02F340EA030021FA04F330
:1003900045EA030130BDC4F10C04C4F1200220FA87
:1003A00002F001FA04F340EA0300294630BD21FAC5
:1003B00004F0294630BD94F0000F83F4801306BF8B
:1003C00081F480110134013D4EE77FEA645C18BF7F
:1003D0007FEA655C29D094EA050F08BF90EA020F16
:1003E00005D054EA000C04BF1946104630BD91EA0E
:1003F000030F1EBF0021002030BD5FEA545C05D111
:100400004000494128BF41F0004130BD14F580044F
:100410003CBF01F5801130BD01F0004545F0FE41C3
:1004200041F470014FF0000030BD7FEA645C1ABFF8
:10043000194610467FEA655C1CBF0B46024650EA2F
:10044000013406BF52EA033591EA030F41F400215B
:1004500030BD00BF90F0000F04BF0021704730B5E1
:100460004FF4806404F132044FF000054FF00001B6
:1004700050E700BF90F0000F04BF0021704730B577
:100480004FF4806404F1320410F0004548BF40424C
:100490004FF000013EE700BF42004FEAE2014FEAA1
:1004A00031014FEA02701FBF12F07F4393F07F4F7C
:1004B00081F06051704732F07F4208BF704793F07F
:1004C0007F4F04BF41F40021704730B54FF4607492
:1004D00001F0004521F000411CE700BF50EA010295
:1004E00008BF704730B54FF000050AE050EA01023E
:1004F00008BF704730B511F0004502D5404261EBAE
:1005000041014FF4806404F132045FEA915C3FF4EE
:10051000D8AE4FF003025FEADC0C18BF03325FEA8B
:10052000DC0C18BF033202EBDC02C2F1200300FA3C
:1005300003FC20FA02F001FA03FE40EA0E0021FA61
:1005400002F11444BDE600BF70B54FF0FF0C4CF44F
:10055000E06C1CEA11541DBF1CEA135594EA0C0F01
:1005600095EA0C0F00F0DEF82C4481EA030621EA3C
:100570004C5123EA4C5350EA013518BF52EA033577
:1005800041F4801143F4801338D0A0FB02CE4FF029
:100590000005E1FB02E506F00042E0FB03E54FF059
:1005A0000006E1FB03569CF0000F18BF4EF0010E51
:1005B000A4F1FF04B6F5007F64F5407404D25FEA4D
:1005C0004E0E6D4146EB060642EAC62141EA555100
:1005D0004FEAC52040EA5E504FEACE2EB4F1FD0C42
:1005E00088BFBCF5E06F1ED8BEF1004F08BF5FEAC0
:1005F000500E50F1000041EB045170BD06F0004672
:1006000046EA010140EA020081EA0301B4EB5C041E
:10061000C2BFD4EB0C0541EA045170BD41F4801116
:100620004FF0000E013C00F3AB8014F1360FDEBF3B
:10063000002001F0004170BDC4F10004203C35DA17
:100640000C341BDC04F11404C4F1200500FA05F39A
:1006500020FA04F001FA05F240EA020001F000423B
:1006600021F0004110EBD37021FA04F642EB0601B1
:100670005EEA430E08BF20EAD37070BDC4F10C04DB
:10068000C4F1200500FA04F320FA05F001FA04F29F
:1006900040EA020001F0004110EBD37041F100018B
:1006A0005EEA430E08BF20EAD37070BDC4F1200596
:1006B00000FA05F24EEA020E20FA04F301FA05F2FE
:1006C00043EA020321FA04F001F0004121FA04F2A6
:1006D00020EA020000EBD3705EEA430E08BF20EA76
:1006E000D37070BD94F0000F0FD101F000464000B0
:1006F00041EB010111F4801F08BF013CF7D041EA32
:10070000060195F0000F18BF704703F00046520035
:1007100043EB030313F4801F08BF013DF7D043EA06
:100720000603704794EA0C0F0CEA135518BF95EABC
:100730000C0F0CD050EA410618BF52EA4306D1D143
:1007400081EA030101F000414FF0000070BD50EA62
:10075000410606BF1046194652EA430619D094EAEC
:100760000C0F02D150EA013613D195EA0C0F05D1D6
:1007700052EA03361CBF104619460AD181EA03012A
:1007800001F0004141F0FE4141F470014FF00000E2
:1007900070BD41F0FE4141F4780170BD70B54FF07D
:1007A000FF0C4CF4E06C1CEA11541DBF1CEA1355FD
:1007B00094EA0C0F95EA0C0F00F0A7F8A4EB0504DF
:1007C00081EA030E52EA03354FEA013100F08880D6
:1007D0004FEA03334FF0805545EA131343EA12639F
:1007E0004FEA022245EA111545EA10654FEA002654
:1007F0000EF000419D4208BF964244F1FD0404F50D
:10080000407402D25B084FEA3202B61A65EB030568
:100810005B084FEA32024FF480104FF4002CB6EB25
:10082000020E75EB030E22BFB61A754640EA0C00A5
:100830005B084FEA3202B6EB020E75EB030E22BFE5
:10084000B61A754640EA5C005B084FEA3202B6EB26
:10085000020E75EB030E22BFB61A754640EA9C00E5
:100860005B084FEA3202B6EB020E75EB030E22BFB5
:10087000B61A754640EADC0055EA060E18D04FEA73
:10088000051545EA16754FEA06164FEAC30343EA13
:1008900052734FEAC2025FEA1C1CC0D111F4801FE0
:1008A0000BD141EA00014FF000004FF0004CB6E7D9
:1008B00011F4801F04BF01430020B4F1FD0C88BF78
:1008C000BCF5E06F3FF6AFAEB5EB030C04BFB6EB83
:1008D000020C5FEA500C50F1000041EB045170BD76
:1008E0000EF0004E4EEA113114EB5C04C2BFD4EBA3
:1008F0000C0541EA045170BD41F480114FF0000E27
:10090000013C90E645EA060E8DE60CEA135594EAA2
:100910000C0F08BF95EA0C0F3FF43BAF94EA0C0FA5
:100920000AD150EA01347FF434AF95EA0C0F7FF41A
:1009300025AF104619462CE795EA0C0F06D152EA6E
:1009400003353FF4FDAE1046194622E750EA410652
:1009500018BF52EA43067FF4C5AE50EA41047FF463
:100960000DAF52EA43057FF4EBAE12E74FF0FF3CC8
:1009700006E000BF4FF0010C02E000BF4FF0010C99
:100980004DF804CD4FEA410C7FEA6C5C4FEA430C12
:1009900018BF7FEA6C5C1BD001B050EA410C0CBF61
:1009A00052EA430C91EA030F02BF90EA020F0020C3
:1009B000704710F1000F91EA030F58BF994208BF2A
:1009C00090422CBFD8176FEAE37040F001007047E7
:1009D0004FEA410C7FEA6C5C02D150EA013C07D13E
:1009E0004FEA430C7FEA6C5CD6D152EA033CD3D089
:1009F0005DF8040B704700BF8446104662468C4683
:100A00001946634600E000BF01B5FFF7B7FF0028B5
:100A100048BF10F1000F01BD4DF808EDFFF7F4FFDE
:100A20000CBF012000205DF808FB00BF4DF808ED69
:100A3000FFF7EAFF34BF012000205DF808FB00BF8C
:100A40004DF808EDFFF7E0FF94BF012000205DF8AE
:100A500008FB00BF4DF808EDFFF7CEFF94BF012063
:100A600000205DF808FB00BF4DF808EDFFF7C4FF5C
:100A700034BF012000205DF808FB00BF4A0011D2FE
:100A800012F5001211D20DD56FF47873B3EB6252E8
:100A90000ED44FEAC12343F0004343EA505323FAF4
:100AA00002F070474FF00000704750EA013002D169
:100AB0004FF0FF3070474FF0000070474FEA41029F
:100AC000B2F1E04324BFB3F5001CDCF1FE5C0DD9AC
:100AD00001F0004C4FEAC0024CEA5070B2F1004FF6
:100AE00040EB830008BF20F00100704711F0804FF9
:100AF00021D113F13872BCBF01F00040704741F4BE
:100B000080114FEA5252C2F11802C2F1200C10FAC1
:100B10000CF320FA02F018BF40F001004FEAC123A5
:100B20004FEAD32303FA0CFC40EA0C0023FA02F349
:100B30004FEA4303CCE77FEA625307D150EA01331F
:100B40001EBF4FF0FE4040F44000704701F00040EF
:100B500040F0FE4040F40000704700BF034613F829
:100B6000012B002AFBD1181A013870470000000041
:100B700001F0FF01102A2BDB10F0070F08D010F84E
:100B8000013B013A8B422DD010F0070F42B3F6D152
:100B9000F0B441EA012141EA014122F007047FF06B
:100BA00000070023F0E80256083C85EA010586EAC2
:100BB000010685FA47F5A3FA87F586FA47F6A5FAFE
:100BC00087F68EB9EED1F0BC01F0FF0102F007020A
:100BD00032B110F8013B013A83EA010313B1F8D1B5
:100BE0000020704701387047002D06BF3546033896
:100BF000073815F0010F07D1013015F4807F02BFCF
:100C0000013015F4C03F0130F0BC0138704700BF1F
:100C10004FEA410C7FEA6C5C02D150EA013C0AD1F8
:100C20004FEA430C7FEA6C5C02D152EA033C02D1EA
:100C30004FF0000070474FF0010070474FEA41024B
:100C400012F5001215D211D56FF47873B3EB62521E
:100C500012D94FEAC12343F0004343EA505311F045
:100C6000004F23FA02F018BF404270474FF00000D7
:100C7000704750EA013005D111F0004008BF6FF015
:100C8000004070474FF00000704700BF00B583B0D0
:100C90000E4B5A6942F001025A615B6903F001038D
:100CA0000193019B00221146102000F0BFFF10208D
:100CB00001F002F800221146112000F0B7FF1120C8
:100CC00000F0FAFF03B05DF804FB00BF0010024023
:100CD00070B58AB00024059406940794089409948A
:100CE000384B5A6942F400225A615A6902F40022D0
:100CF0000092009A5A6942F480025A615A6902F4D9
:100D000080020192019A5A6942F400325A615A698A
:100D100002F400320292029A5A6942F480225A6125
:100D20005A6902F480220392039A5A6942F48012AB
:100D30005A615B6903F480130493049B22462021CB
:100D40004FF0904001F0E8FA4FF4005305934FF450
:100D50000413069307941C4E05A9304601F08EF942
:100D600040F6FF43059303250695079405A93046F1
:100D700001F084F949F6D37305930695079405A904
:100D80004FF0904001F07AF9202305930123069358
:100D90000794089405A94FF0904001F06FF943F6CD
:100DA000F77305930695079405A9084801F066F9BD
:100DB000042305930695079405A9054801F05EF9FB
:100DC0000AB070BD0010024000080048000400484E
:100DD000000C004800B589B00023039304930593E9
:100DE000069307930268134B9A4202D009B05DF84C
:100DF00004FB03F51C439A6942F000529A619A6918
:100E000002F000520192019A5A6942F400225A619A
:100E10005B6903F400230293029B4FF48053039316
:100E20000223049305930323079303A9024801F0C7
:100E300025F9DBE7007401400008004830B589B0AF
:100E40000023039304930593069307930268194BB9
:100E50009A4201D009B030BD03F51C435A6942F4EF
:100E600080225A615A6902F480220192019A5A69D9
:100E700042F400225A615B6903F400230293029B4F
:100E80004FF44043039302250495032406940D2355
:100E9000079303A9084801F0F1F84FF44073039356
:100EA0000495002305930694079403A9034801F0D1
:100EB000E5F8CFE70074014000040048000800484E
:100EC00010B5B2B000242D942E942F943094319408
:100ED00029942A942B942C945422214614A804F08B
:100EE000F9F91194129413942422214608A804F0CD
:100EF000F1F920222146684604F0ECF99D489E4B0A
:100F000003604460846001F005FD002840F0F88033
:100F10000C21984801F0ACFD002840F0F4800A2133
:100F2000944801F0F3FD002840F0F0800021914842
:100F300002F078F8002840F0EC8000232D932E93E7
:100F400008222F9231932DAA01218A4801F0F8FF3F
:100F5000002840F0E1804CF25033299300232A937B
:100F60002B9308232C9329AA0521824801F0F0FD38
:100F7000002840F0D4800023149315931693179300
:100F80000122189219931A931B931C934FF000623D
:100F90001D921E931F934FF00053209314AA052116
:100FA000744802F077F8002840F0BC8032AB44F679
:100FB000206243F8842D012205216E4802F0A8FA30
:100FC000002840F0B28032AB47F2305243F8842D13
:100FD00002220521674802F09BFA002840F0A88011
:100FE00010232C9329AA0321624801F0B1FD0028A7
:100FF00040F0A1800023149315932022199220938E
:101000002193229323934FF48071249125934FF0E1
:10101000807126912792289314AA0321554802F043
:1010200039F8002840F08A80002314934023279346
:1010300014AA04214F4802F02DF8002840F08180C6
:101040000023089340F2671209920A934FF400417B
:101050000B914FF480410C910D920E934FF0004391
:101060000F934FF08043109308AA0321414802F0E8
:1010700095F9002868D108AA04213E4802F08EF9AB
:10108000002864D100230093082201924FF480715C
:101090000291039304920593069307936B464022B3
:1010A0000321344802F04AFB002853D10421029165
:1010B0006B464FF480722F4802F040FB00284CD161
:1010C00000230193029304936B4680220321294855
:1010D00002F034FB002843D16B464FF40072042128
:1010E000244802F02BFB00283DD129AA04212148E5
:1010F00001F02EFDD0BB1F48FFF7A0FE32B010BD9F
:1011000000F03CF804E700F039F808E700F036F8A2
:101110000CE700F033F810E700F030F81BE700F0C0
:101120002DF828E700F02AF840E700F027F84AE712
:1011300000F024F854E700F021F85BE700F01EF817
:1011400072E700F01BF87BE700F018F893E700F077
:1011500015F897E700F012F8A8E700F00FF8AFE7EE
:1011600000F00CF8B8E700F009F8BEE700F006F868
:10117000C1E700BF540300200074014072B6FEE7CF
:1011800000B597B0202200210DA804F0A3F8002399
:101190000793089309930A930B9300930193029387
:1011A000039304930593069302230C930122109258
:1011B0001022119213934FF4601315930CA802F0B0
:1011C0004DFBD0B90F230793022108910023099307
:1011D0004FF480620A920B9307A802F029FF70B9BE
:1011E0004FF4804300934FF480530693684603F016
:1011F00081F830B917B05DF804FBFFF7BFFFFFF7C8
:10120000BDFFFFF7BBFF08B500F0CEFCFFF7B8FF4E
:10121000FFF75EFDFFF73AFDFFF752FE00F0A8F87A
:1012200000F04AFA00F070FA00F0D0FAFAE77047DE
:1012300000B583B00C4B9A6942F001029A619A6939
:1012400002F001020092009ADA6942F08052DA61FB
:10125000DB6903F080530193019B072000F0C8FC79
:1012600003B05DF804FB00BF001002407047FEE7CA
:10127000FEE7FEE7FEE770477047704708B500F0ED
:10128000A5FC08BD08B5024800F09DFE08BD00BFE2
:101290003004002008B5024800F095FE08BD00BFEC
:1012A0007404002010B5074C204603F073FA23683D
:1012B000DA6912F0100F00D110BD10221A6200F08E
:1012C000CDF9F9E7B805002070B50D4616460024A3
:1012D00004E000F00FF9287001340135B442F8DB66
:1012E000304670BD70B51646002405E04D1C0878E8
:1012F00000F0EAF801342946B442F7DB304670BD0D
:1013000008B503460B4A126842B10A4A1068034402
:101310006A46934206D8074A136008BD054A064943
:101320001160F2E703F0ACFF0C2303604FF0FF30D5
:10133000F3E700BF2C030020880600204FF0FF30A9
:1013400070474FF400534B600020704701207047F6
:1013500000207047054BD3F8882042F47002C3F890
:1013600088204FF000629A60704700BF00ED00E0F7
:1013700008B50B480B4B03604FF4E1334360002387
:101380008360C36003610C2242618361C3610362B5
:10139000436203F06BFE00B908BDFFF7EFFEFBE709
:1013A000B80500200044004010B588B00023039326
:1013B000049305930693079302682D4B9A4201D03C
:1013C00008B010BD044603F5E633DA6942F4003292
:1013D000DA61DA6902F400320192019A5A6942F440
:1013E00000325A615B6903F400330293029B0C23C1
:1013F000039302230493032306930723079303A96C
:101400004FF0904000F03AFE1A481B4B0360002357
:10141000436083608022C260036143618361C36172
:1014200000F0A0FCF0B9134B23675C621348144B27
:10143000036010234360002383608022C260036145
:1014400043618361C36100F08DFC70B90B4BE366AF
:101450005C6200221146262000F0E8FB262000F006
:101460002BFCADE7FFF78AFEDDE7FFF787FEEDE730
:1014700000440040300400206C000240740400204E
:101480008000024008B50F4BDA689B689A420DD085
:101490000C4B19688854DA680132DA6099690131B5
:1014A00099615B689A4208D0002008BD054B9B6992
:1014B000002BEDD0FFF762FEF6E7024B0022DA6068
:1014C000F2E700BF04000020094B93F820300BB175
:1014D0000120704710B5064C012384F82030C0B2BB
:1014E000FFF7D0FF002384F82030012010BD00BF9B
:1014F00004000020002070470268084B9A4200D088
:101500007047074B93F82430012BF9D1044B5A69EB
:101510009A60002283F82020F2E700BF00440040D8
:1015200004000020154B9B6F202B00D0704710B596
:10153000012380F8203084688269A11841614368E2
:10154000994213D802610ED0002383610168846838
:10155000C369026912FB03F292B203FB041107484C
:1015600003F04CF810BD00234361EDE71B1B036142
:10157000D31A836100234361E8E700BFB805002068
:10158000124BDB6F202B02D0104BD86F704770B519
:101590000F4D402632460021284603F09BFE0D4B9E
:1015A00001221A70094C2268136843F0100313607B
:1015B00032462946204603F00DFE236F1A68136851
:1015C00023F004031360014BD86F70BDB8050020F1
:1015D0003C0600203403002070B5164B5B68C02B1E
:1015E00024D8144D00216960134C4FF480722046BA
:1015F00003F070FE6868114B204403F140021E683E
:101600005D689C68D968066045608460C16010337D
:1016100010309342F3D1074C63684033636000237A
:101620002370FFF7ADFF0123237202E0044804F0AA
:10163000B5FA70BD34030020B80400203C06002039
:10164000A08E000808B50268034B9A4200D008BD7E
:10165000FFF7C2FFFBE700BF0044004008B5144B92
:101660001B685B683F2B05D8124BDB6F222B02D027
:10167000FFF7B2FF08BD0F4B1B689A6812F0400FCE
:10168000F6D09A6822F040029A600A4B186F08B1AF
:1016900000F052FC074B19680A6822F490720A6045
:1016A00019688A6822F001028A602022DA67DFE77F
:1016B00030040020B805002008B5074B1B7A03B1A1
:1016C00008BD0021044B59604FF48072034803F0B9
:1016D00001FEFFF755FFF3E734030020B8040020B4
:1016E000014B187A704700BF34030020014B187279
:1016F000704700BF3403002001230370014B436097
:10170000704700BF0400002008B52A4B1B78102B3F
:101710000DD8DFE803F0090D0C0C230C0C0C2D0C7C
:101720000C0C0C0C0C3B45002248FFF7E5FF08BDF4
:10173000204B586890F82030002BF8D11E4B1B78B6
:101740001C4A1370012B03D01B4B01221A70EEE7C9
:101750008369002BEBD0FFF7E5FEE8E7154B5B68EC
:1017600093F82030002BE2D1124B01221A70DEE7F1
:10177000104B5B6893F82030002BD8D10D4B0F4AEB
:101780005A6001220E490A701A70D0E7094B5B6853
:1017900093F82030002BCAD1064B01221A70C6E7FD
:1017A000044B5B6893F82030002BC0D1014B012221
:1017B0001A70BCE7400300202C0100200400002028
:1017C00028000020012303707047000008B5474B34
:1017D0001B7A012B07D013B1022B0CD008BD444853
:1017E000FFF7F0FFFAE7FFF77BFF0128F6D13F4B49
:1017F00002221A72F2E720214FF0904000F0A6FD7D
:101800003C4B1B78463B2D2B6CD8DFE803F0276B55
:101810006B6B6B6B6B6B6B6B4E6B6B176B6B6B6B89
:101820006B6B6B6B6B6B6B6B6B6B6B6B6B6B276B4C
:101830006B6B6B6B6B6B6B6B4E6B6B172D4B9B788A
:10184000412B08D0612B06D04F2B01D06F2B21D11B
:1018500000F088F81EE000F061F81BE0264803F075
:101860000CFD51EC100BFFF729F9244B186000EE2A
:10187000100A00F029F900F061F910EE100AFEF7E5
:101880000BFE00221E4BFEF789FF02460B461D4849
:1018900004F084F917491C4804F080F90020FFF790
:1018A00025FF124B01221A7298E7134803F0E5FC5A
:1018B00051EC100BFFF702F9144B186000EE100A00
:1018C00000F0D2F800F03AF910EE100AFEF7E4FD4D
:1018D00000220F4BFEF738FE02460B460D4804F07F
:1018E0005DF9D7E70C4804F059F9D3E7400300202D
:1018F00048030020B8040020B9040020340100206F
:1019000000408F40B08E0008FC8E0008300100209F
:1019100000005940C88E0008E48E000810B50F4B37
:1019200001221A700E4C0521204601F059F940227F
:101930000321204601F00CFA80220321204601F009
:1019400007FA4FF480720421204601F001FA4FF4A7
:1019500000720421204601F0FBF910BD490300206C
:101960005403002010B50F4B00221A700E4C0521B5
:10197000204601F067F940220321204601F036FAA3
:1019800080220321204601F031FA4FF480720421B5
:10199000204601F02BFA4FF400720421204601F09A
:1019A00025FA10BD4903002054030020DFED0A7A18
:1019B000B4EEE70AF1EE10FA0ADCDFED087AB4EED5
:1019C000E70AF1EE10FA02D59FED040A704770475E
:1019D0009FED010A704700BF001B374900E87D47B3
:1019E00038B52DED028BB0EE408A1D4B1B6858694F
:1019F00007EE900AF8EE677A17EE900AFEF74CFDB4
:101A000004460D4612A3D3E90023FEF7E5FB224668
:101A10002B46FEF7C3FEFFF751F800EE100AB4EEB6
:101A2000C80AF1EE10FA0BD418EE100AFEF734FDD6
:101A300009A3D3E90023FEF7F9FF20B19FED090ABE
:101A4000BDEC028B38BDB0EE480AF9E7AFF3008079
:101A50000000000000606240F168E388B5F8E43EF1
:101A600054030020ACC5273738B5144D2B685C698A
:101A70006408FFF7B5FF124B83ED000AA4B2A4F18E
:101A8000200307EE903AF8EEE77A20EE270AFCEE04
:101A9000C07A17EE903A2D6814FA83F3EB6110EEDA
:101AA000100AFEF7F9FC0022064BFEF797FBFEF743
:101AB000E5FF80B2241A6C6238BD00BF54030020D9
:101AC000300100200000E03F38B5194B1D78FFF7CA
:101AD0006DFF10EE100A174B83ED010AFEF7DCFCD8
:101AE00002460B4610A1D1E90001FEF757FEFEF7B2
:101AF000C5FF84B2012D0ED00F4B1B685C61C3F88B
:101B00001442C3F894420B4B93ED000AFFF7ACFF6D
:101B1000012D03D038BDFFF725FFEDE7FFF7FEFEEF
:101B2000F8E700BFAFF30080000000008084EE41C2
:101B3000490300203001002054030020074B1A689D
:101B4000D369516A5B1A07EE903AF8EE677A92ED24
:101B5000050AB8EE400A87EE800A70475403002059
:101B600010B504460E4B18784FF47A73B3FBF0F3BC
:101B70000C4A1068B0FBF3F000F0B6F868B90F2C0F
:101B800001D901200AE0002221464FF0FF3000F089
:101B90004DF8034B5C60002000E0012010BD00BF49
:101BA000380100200000002008B5074A136843F000
:101BB00010031360032000F01BF80020FFF7D0FF94
:101BC000FFF736FB002008BD00200240034A1168E1
:101BD000034B1B780B441360704700BF7C0600204A
:101BE00038010020014B1868704700BF7C060020B8
:101BF00010B50446C31E042B0FD80A4AD36823F439
:101C0000E0631B041B0C240204F4E064234343F050
:101C1000BF6343F40033D36010BDAC210248FFF72B
:101C200006FBEAE700ED00E0148F000870B50546FA
:101C30000C4616460F2A25D80F2C28D81B4BDB68DC
:101C4000C3F30223C3F10702042A28BF0422191D8B
:101C5000062921D9033B4FF0FF3101FA02F224EAB1
:101C600002049C4001FA03F326EA03063443002DE4
:101C700014DB2401E4B205F1604505F5614585F802
:101C8000004370BDC4210A48FFF7D1FAD4E7C5214B
:101C90000748FFF7CCFAD1E70023DCE705F00F0592
:101CA0002401E4B2034B5C55EBE700BF00ED00E01C
:101CB000148F000814ED00E010B5041E0ADB002CA0
:101CC00007DB04F01F02640901239340044A42F831
:101CD000243010BDD8210348FFF7A9FAEFE700BF71
:101CE00000E100E0148F00080138B0F1807F0AD2D3
:101CF000064B5860064AF02182F8231000209860B5
:101D000007221A6070470120704700BF10E000E012
:101D100000ED00E070B4066CC56B0124B4406C604B
:101D2000046863604368102B05D0036899600368FA
:101D3000DA6070BC704703689A600368D960F8E79E
:101D40000268054B1344054AA2FB03231B099B00B1
:101D50000364034BC3637047F8FFFDBFCDCCCCCC0D
:101D600000000240002800F0928010B5044603688D
:101D7000484A934215D01432934212D014329342FF
:101D80000FD0143293420CD01432934209D0143243
:101D9000934206D01432934203D094213E48FFF779
:101DA00046FA636823B1102B02D0B3F5804F4BD1B4
:101DB000A368402B01D0002B4BD1E368802B01D0CE
:101DC000002B4BD123692BB1B3F5807F02D0B3F543
:101DD000007F48D163692BB1B3F5806F02D0B3F5B2
:101DE000006F45D1A3690BB1202B46D1E36943B104
:101DF000B3F5805F05D0B3F5005F02D0B3F5405F67
:101E000040D1022384F8213021680A6822F47F52ED
:101E100022F030026368A0680343E068034320694E
:101E2000034360690343A0690343E0690343134329
:101E30000B602046FFF784FF0020A063012384F895
:101E4000213084F8200010BD95211348FFF7EFF9E9
:101E5000AEE796211048FFF7EAF9AEE797210E4862
:101E6000FFF7E5F9AEE798210B48FFF7E0F9B1E796
:101E700099210948FFF7DBF9B4E79A210648FFF7F3
:101E8000D6F9B3E79B210448FFF7D1F9B9E7012060
:101E9000704700BF08000240508F0008F8B50446A4
:101EA0000E4617461D465A1E4FF6FE739A420FD82D
:101EB00094F82030012B3AD0012384F8203094F894
:101EC0002130012B0AD0002384F820300220F8BDF5
:101ED00040F24D111748FFF7AAF9E9E7022384F809
:101EE00021300023A3632268136823F001031360E9
:101EF0002B463A4631462046FFF70CFFE36A5BB1BA
:101F00002268136843F00E0313602268136843F0DD
:101F1000010313600020DAE72268136843F00A0324
:101F200013602268136823F004031360EDE70220B6
:101F3000CDE700BF508F000890F82130022B06D06B
:101F400004238363002380F8203001207047026857
:101F5000136823F00E0313600268136823F0010373
:101F60001360036CC16B012202FA03F34B6080F82B
:101F70002120002380F820301846704708B590F8DB
:101F80002130022B03D004238363012008BD0268A3
:101F9000136823F00E0313600268136823F0010333
:101FA0001360036CC16B012202FA03F34B6080F8EB
:101FB0002120002380F82030436B13B19847002084
:101FC000E4E70020E2E738B5C36B1A6804682568C7
:101FD000016C04238B40134213D015F0040F10D072
:101FE000236813F0200F03D1236823F00403236038
:101FF000016CC26B04238B405360C36A03B19847E2
:1020000038BD02238B4013421AD015F0020F17D0AF
:10201000236813F0200F06D1236823F00A032360FE
:10202000012380F82130016CC26B02238B40536086
:10203000002380F82030836A002BE1D09847DFE747
:10204000082303FA01F11142DAD015F0080FD7D0B6
:10205000236823F00E032360026CC16B012303FA93
:1020600002F24A60836380F82130002380F8203038
:10207000036B002BC4D09847C2E700002DE9F04164
:1020800082B080460C46B0F1904F12D09D4B9842E2
:102090000FD003F5806398420BD003F5806398421C
:1020A00007D003F50063984203D0B2219648FFF7AA
:1020B000BEF823689AB212B11B0C1B041BB1B321EA
:1020C0009148FFF7B4F86368012B19D9112B17D089
:1020D000022B15D0122B13D0B3F5881F10D0B3F5F7
:1020E000041F0DD0B3F5441F0AD0B3F5901F07D0DD
:1020F000B3F5081F04D0B3F5481F01D0032B01D15D
:10210000002593E0B4218048FFF791F8F8E7E368F1
:10211000012B01D9032B17D1D8F80820690003231C
:102120008B4022EA0302E3688B401343C8F808306F
:10213000D8F8042022EA07026368C3F30017AF400F
:102140001743C8F8047080E0C3216F48FFF76FF8A9
:10215000E2E7D4216C48FFF76AF87FE0B8F1904FCE
:1021600012D0684B98450FD003F5806398450BD08B
:1021700003F58063984507D003F50063984503D0C5
:10218000E2216148FFF753F823690D2B01D90F2B8A
:1021900010D1EA08083258F8220005F00703990028
:1021A0000F238B4020EA030023698B40034348F848
:1021B000223065E0E3215448FFF739F8E9E70323CB
:1021C00000E000238B4003430232504941F82230A3
:1021D0004F4B1A68F34303EA0201606810F4803F32
:1021E00001D046EA02014A4A1160526803EA02013C
:1021F000606810F4003F01D046EA0201444A516091
:10220000926803EA0201606810F4801F01D046EA78
:1022100002013F4A9160D2681340616811F4001FC7
:1022200001D046EA02033A4AD3600135266836FAFD
:1022300005F363D00127AF403E40F6D0636803F05A
:102240000303013B012B7FF662AF636803F00303D6
:10225000032B0FD0A368022B3FF67BAFD8F80C20DE
:10226000690003238B4022EA0302A3688B401343D7
:10227000C8F80C30636803F00303022B3FF46EAF21
:10228000D8F80020690003238B4022EA0302636828
:1022900003F003038B401343C8F80030636813F462
:1022A000403FC2D01B4B9A6942F001029A619B6980
:1022B00003F001030193019BAA08911C134B53F8EF
:1022C000210005F0030399000F238B4020EA03004F
:1022D000B8F1904F3FF475AF0A4B98450AD003F51B
:1022E0008063984508D003F5806398453FF467AF55
:1022F000052367E7012365E7022363E702B0BDE832
:10230000F08100BF00040048888F000800000140F1
:10231000000401400010024070B5054614460E4608
:1023200021B1012C08D86CB9AE6270BD4FF4D271E6
:102330000548FEF77CFFF4E740F2A5110248FEF7DE
:1023400076FFF0E7AE61F0E7888F000838B5054604
:102350000C4621B94FF4DE710548FEF768FF6B6942
:1023600004EA030224EA030444EA0244AC6138BDEF
:10237000888F000810B40468226822F007028B6876
:10238000134323F01803CA681343236003680A68E1
:102390005A6103684A689A615DF8044B704770B4EB
:1023A00006684C1CE401355925F0070593682B435A
:1023B00023F01803D5682B43335103681468C9010F
:1023C0000B44C3F89440036852681944C1F898203C
:1023D00070BC704730B404682268D4F8A05322F06F
:1023E00020024B69134323F400628B69134323F4E7
:1023F0008062CB69134323F0C0620B6A134323F05E
:1024000000624B6A134323F040438A6A43EA820323
:1024100023F000530A6B134325F48035CA6A154331
:1024200023600368C3F8A05330BC70472DE9F04126
:1024300005684B1CDB01EC5824F07044EC50076835
:10244000FB5807EBC114D4F8E8C0D4F8E450D7F82F
:10245000A06323F020045369234323F400649369A9
:10246000234323F48064D369234323F0C064136AB5
:10247000234323F00064536A234323F07044936A98
:10248000234323F40033146BB4F1005F35D023F001
:102490004003D2F834E04EEA030323F48023146DA2
:1024A000234323F0FC73946C43EA04082CF01F0CC4
:1024B000946B04F01F0444EA0C0424F00044D36B32
:1024C0001C43BEF1000F03D125F48075136C1D432E
:1024D000D2F844C0BCF5606F12D0BCF5F05F0FD0ED
:1024E00025F4F0554CEA0505D2F84CC0042910D863
:1024F000DFE801F00A252B31370043F40033C6E74B
:10250000BEF1400FF0D1EBE726F40036D26A46EA7E
:1025100042064A1CD20147F802800368C9010B44F5
:10252000C3F8E84003680B44C3F8E4500368194457
:10253000C1F8D4C00368C3F8A063BDE8F08126F4F5
:102540008026D26A46EA8206E3E726F40026D26AAB
:1025500046EAC206DDE726F48016D26A46EA02168B
:10256000D7E726F40016D26A46EA4216D1E7F0B45D
:10257000076807EBC114D4F8E450D4F8B860102A07
:1025800007D02FD9802A34D044D8202A31D0402AED
:102590003ED15C684FEAC11C6744C7F8BC40026882
:1025A0009C686244C2F8C0400022FE24944025EAA0
:1025B00004051C6894402543DC6894402C431F6943
:1025C00007FA02F525435C69944025439C699440D1
:1025D0002C43082F25D0036803EBC111C1F8E44058
:1025E000F0BC7047022A04D010D9042AD1D0082A9E
:1025F0000ED15C684FEAC11C6744C7F8C44002684A
:102600009C686244C2F8C8401022CEE7012AC0D0BC
:102610000022CAE7B2F5807FBBD0B2F5007FF7D1C8
:10262000E7E716F0022FD6D1DB6903FA02F2144372
:10263000D1E770B40368D3F8B063D3F8B453D3F8D8
:10264000B8430A2915D8DFE811F00B0016002F0057
:102650004A00660082009E00B800D500F20010011A
:102660000022C3F8B0230368C3F8B4230368C3F897
:10267000B82370BC704726F03F06116801F00301D3
:1026800041EA0604516801F004062643916801F00E
:1026900018010E43C3F8B063136903F020031E430F
:1026A0000368C3F8B063E4E726F47C6611688C0124
:1026B000E4B2264351688C0104F480743443916879
:1026C0008E0106F4C0662643C3F8B06313699B010C
:1026D00003F400631E430368C3F8B063C9E726F43C
:1026E0007C3611680C0304F44054264351680C03F3
:1026F00004F48044344391680E0306F4C036264344
:10270000C3F8B06313691B0303F400331E4303686B
:10271000C3F8B063ADE726F47C0611688C0404F4BA
:102720004024264351688C0404F480143443916897
:102730008E0406F4C0062643C3F8B06313699B04F5
:1027400003F400031E430368C3F8B06391E726F067
:102750007C5611680C0604F04074264351680C0640
:1027600004F08064344391680E0606F0C056264398
:10277000C3F8B06313691B0603F000531E430368DC
:10278000C3F8B06375E725F01F05116801F0030178
:102790000D43516801F004010D43916801F01801E7
:1027A000294324F00F04D26802F00F021443C3F847
:1027B000B4130368C3F8B8435BE725F4F865116800
:1027C0008E01F6B22E435168890101F480752E43C3
:1027D00091688D0105F4C065354324F47074D268A6
:1027E000920102F470721443C3F8B4530368C3F83F
:1027F000B8433EE725F4F83511680E0306F4405659
:102800002E435168090301F480452E4391680D035E
:1028100005F4C035354324F47044D268120392B2F3
:102820001443C3F8B4530368C3F8B84321E725F44D
:10283000F80511688E0406F440262E435168890479
:1028400001F480152E4391688D0405F4C0053543CD
:1028500024F47014D268920402F470121443C3F882
:10286000B4530368C3F8B84303E725F0F85511687B
:102870000E0606F040762E435168090601F0806589
:102880002E4391680D0605F0C055354324F0706461
:10289000D268120602F070621443C3F8B45303689E
:1028A000C3F8B843E5E6052933D8DFE801F00B1398
:1028B0001B232B030268D2F8843343F00103C2F8D0
:1028C000843370470268D2F8843343F00203C2F8BD
:1028D000843370470268D2F8843343F00403C2F8AB
:1028E000843370470268D2F8843343F00803C2F897
:1028F000843370470268D2F8843343F01003C2F87F
:10290000843370470268D2F8843343F02003C2F85E
:1029100084337047002800F0A58010B582B00446CB
:102920000268514B9A4204D040F226214F48FEF7EC
:102930007EFC636823F4403323F03F03002B58D11F
:10294000022384F8C1300023C4F8C430C4F8C8306E
:10295000C4F8CC30C4F8D030C4F8D430C4F8D8307F
:10296000A36813F0010F25D0236943B1B3F5804F5D
:1029700005D0B3F5004F02D0B3F5404F3FD16369A6
:102980002BB1B3F5005F02D0B3F5405F3DD12268B3
:10299000354B9A423FD021680A6822F440422369AD
:1029A00003F44043134323F44053626902F440525A
:1029B00013430B602046FEF70DFAA36813F0020FD5
:1029C00010D0E3682BB1B3F5007F02D0B3F5407FA0
:1029D0002DD121680A6822F44072E36803F4407341
:1029E00013430B60012384F8C130002284F8C02017
:1029F00033E040F227211D48FEF719FCA0E740F222
:102A00005D211A48FEF713FCB9E740F25E21174832
:102A1000FEF70DFCBBE703F51C439A6942F0005238
:102A20009A619B6903F000530193019BB3E740F265
:102A300082210E48FEF7FBFBCBE7D000811A8B000A
:102A4000234400219961D961196259629962831AFC
:102A50009800204401630132D2B2052AEDD900204A
:102A600002B010BD0120704700740140C48F0008FF
:102A700038B504460D464B1E13F1030F05D8042943
:102A800003D0082901D00C2927D194F8C030012B9C
:102A900038D0012384F8C030022384F8C130B5F166
:102AA000FF3F20D02268D2F8CC3343F00203C2F8B3
:102AB000CC332268D2F8CC3323F00C031D43C2F888
:102AC000CC532268D2F8CC3343F00103C2F8CC33A4
:102AD000012384F8C130002038BD40F2F9210A48B2
:102AE000FEF7A5FBD1E72268D2F8CC3323F002032E
:102AF000C2F8CC332268D2F8CC3343F00103C2F8D9
:102B0000CC33E5E70220E7E7C48F000870B5044640
:102B10000D46FFF767F806462368D3F8883313F4A9
:102B2000803F0ED1B5F1FF3FF6D0FFF75BF8801B79
:102B3000A84201D8002DEFD1072384F8C13003202B
:102B400005E0012384F8C130002084F8C00070BD86
:102B500070B505460C461646052908D039B101293D
:102B600005D0022903D0032901D004291CD1B36860
:102B7000072B1FD8F368082B02D00BB1102B1FD1E5
:102B800095F8C130DBB2022B25D0022385F8C13085
:102B9000052C1BD0324621462846FFF700FC0123B6
:102BA00085F8C130002070BD40F286310B48FEF739
:102BB0003EFBDCE740F287310848FEF738FBD9E7F7
:102BC0004FF462710548FEF732FBD9E731462846DB
:102BD000FFF7D0FBE3E70220E5E700BFC48F000862
:102BE00038B504460D46052908D039B1012905D06C
:102BF000022903D0032901D0042916D194F8C0304A
:102C0000012B18D0012284F8C020022384F8C1309F
:102C100021680B68094850F8250003430B6084F8CD
:102C2000C120002084F8C00038BD4FF473710448FF
:102C3000FEF7FDFAE2E70220F6E700BF688E000823
:102C4000C48F000838B505460C46052908D039B1AF
:102C5000012905D0022903D0032901D004296BD111
:102C600095F8C030012B6DD0012385F8C0300223C8
:102C700085F8C130344B53F8243013F4803F04D02E
:102C80002A68136823F4803313602F4B53F82430E1
:102C900013F4003F09D02B68D3F8942312F0030FEC
:102CA00003D11A6822F400321A60274B53F82430FB
:102CB00013F4802F09D02B68D3F8942312F00C0F53
:102CC00003D11A6822F480221A601F4B53F8243073
:102CD00013F4002F09D02B68D3F8942312F0300F8F
:102CE00003D11A6822F400221A60174B53F82430DB
:102CF00013F4801F09D02B68D3F8942312F0C00F6F
:102D000003D11A6822F480121A600F4B53F8243052
:102D100013F4001F09D02B68D3F8942312F4407FDA
:102D200003D11A6822F400121A60012385F8C13019
:102D3000002085F8C00038BD40F2EF310348FEF7AF
:102D400076FA8DE70220F6E7688E0008C48F000847
:102D500070B5044616460D4611B9531E012B12D903
:102D6000012D2DD0022D30D0032D33D0042D05D1CF
:102D7000B6F5807F07D0B6F5007F04D040F6350168
:102D80001848FEF754FA94F8C030012B27D00122DE
:102D900084F8C020022384F8C1302168D1F894332C
:102DA0001E43C1F8946321680B680F4850F8250052
:102DB00003430B6084F8C120002084F8C00070BD7C
:102DC000042EE0D0082ECDD1DDE7102EDBD0202E52
:102DD000CAD1D8E7402ED6D0802EC7D1D3E7022063
:102DE000EDE700BFC48F0008688E000870B5044688
:102DF00016460D4611B9531E012B15D9012D00F0B1
:102E00008680022D00F08980032D00F08C80042D37
:102E100005D1B6F5807F07D0B6F5007F04D040F627
:102E200067014548FEF703FA94F8C030012B00F023
:102E30008180012384F8C030022384F8C1302268E5
:102E4000D2F898331E43C2F898633C4B53F82530B0
:102E500013F4803F04D02268136823F48033136096
:102E6000364B53F8253013F4003F09D02368D3F8CC
:102E7000942312F0030F03D11A6822F400321A606F
:102E80002E4B53F8253013F4802F09D02368D3F844
:102E9000942312F00C0F03D11A6822F480221A60D6
:102EA000264B53F8253013F4002F09D02368D3F8AC
:102EB000942312F0300F03D11A6822F400221A6012
:102EC0001E4B53F8253013F4801F09D02368D3F824
:102ED000942312F0C00F03D11A6822F480121A60F2
:102EE000164B53F8253013F4001F09D02368D3F88C
:102EF000942312F4407F03D11A6822F400121A605E
:102F0000012384F8C130002084F8C00070BD042E75
:102F10008AD0082E7FF475AF86E7102E84D0202E3D
:102F20007FF472AF80E7402E3FF47EAF802E7FF4B7
:102F30006EAF79E70220E9E7C48F0008688E0008C9
:102F4000F8B505460E4614460A2947D82368032BD0
:102F50004AD8A3681BB962683AB1042A05D0082B85
:102F600003D0102B01D0182B44D1A3682BB1082B10
:102F700003D0102B01D0182B42D1771E042F03D879
:102F80002369202B03D013B1B31F042B3ED8042F89
:102F90000AD9B31F042B02D8E3680F2B04D940F6DB
:102FA000E5611F48FEF743F995F8C130DBB2022B0B
:102FB00032D095F8C030012B30D0012785F8C07091
:102FC000022385F8C130224631462846FFF731FBFF
:102FD00085F8C170002085F8C000F8BD4FF46E611F
:102FE0000F48FEF724F9B1E740F6E1610C48FEF71F
:102FF0001EF9AEE740F6E2610948FEF718F9B4E7BA
:1030000040F6E3610648FEF712F9B6E740F6E461E0
:103010000348FEF70CF9BAE70220DEE70220DCE7FE
:10302000C48F000838B504460D4641B1B1F1804F58
:1030300005D0B1F1004F02D0B1F1404F1ED194F84C
:10304000C130DBB2022B1FD094F8C030012B1DD051
:10305000012284F8C020022384F8C1302168D1F80D
:10306000B83323F0404305F040451D43C1F8B85341
:1030700084F8C120002084F8C00038BD40F60C71EF
:103080000348FEF7D4F8DAE70220F6E70220F4E777
:10309000C48F000870B505460E461446052909D0B0
:1030A00041B1012906D0022904D0032902D0042904
:1030B00040F0DE80636913B1202B40F0DF80A3690C
:1030C0001BB1B3F5006F40F0DF80E3691BB1B3F5CE
:1030D000806F40F0DF80236A4BB1B3F1007F06D0F0
:1030E000B3F1806F03D0B3F1C06F40F0D980636A51
:1030F0001BB1B3F1006F40F0D980E36A1BB1B3F5A7
:10310000803F40F0D980236B1BB1B3F1005F40F0EA
:10311000D98095F8C130DBB2022B00F0368195F8EA
:10312000C030012B00F03381012385F8C030022329
:1031300085F8C130052E00F0CB80A36AC3B1B3F18E
:10314000805F15D0B3F1005F12D0B3F1405F0FD0B4
:10315000B3F1804F0CD0B3F1A04F09D0B3F1C04F01
:1031600006D0B3F1E04F03D0B3F1004F40F0D78069
:10317000236823F4FF4323F05F03002B40F0D58046
:10318000636823F0FF4323F4BE03002B40F0D38099
:10319000636B13B1402B40F0D480A36B33F01F035B
:1031A00040F0D580E36B1BB1B3F1004F40F0D58008
:1031B000636B23B9226C5AB1B2F5807F08D0402BE3
:1031C00001D1236C23B141F2CC017248FEF72FF8F4
:1031D000636CFBB1B3F5007F1CD0B3F5C06F19D0A1
:1031E000B3F5206F16D0B3F5905F13D0B3F5B05F91
:1031F00010D0B3F5D05F0DD0626B402A05D1B3F586
:10320000606F07D0B3F5F05F04D041F2CE016148A2
:10321000FEF70DF8A36C33F0FC7340F0A480E26C71
:103220005D4B1A4240F0A580236D1BB1B3F5802F92
:1032300040F0A580224631462846FFF7F7F821687E
:10324000F200921B93002B44196262685A62A268D2
:103250009A62E268DA6222691A6331462846FFF709
:1032600022FB012385F8C130002085F8C00070BD25
:1032700041F2A3014748FDF7DAFF1BE741F2A6013F
:103280004448FDF7D4FF1AE741F2A7014148FDF792
:10329000CEFF1AE741F2A8013E48FDF7C8FF1AE742
:1032A00041F2A9013B48FDF7C2FF20E741F2AA0124
:1032B0003848FDF7BCFF20E741F2AB013548FDF788
:1032C000B6FF20E741F2AC013248FDF7B0FF20E73E
:1032D000A36A2BB1B3F1805F02D0B3F1005F0CD1D0
:1032E000236833F07F030ED1636833F4FE0310D1FB
:1032F00021462846FFF76EF8A1E741F2BB012548B9
:10330000FDF795FFECE741F2BC012248FDF78FFF86
:10331000EAE741F2BD011F48FDF789FFE8E741F206
:10332000C5011C48FDF783FF22E741F2C601194899
:10333000FDF77DFF24E741F2C7011648FDF777FF4F
:1033400026E741F2C8011348FDF771FF25E741F276
:10335000C9011048FDF76BFF24E741F2CA010D488F
:10336000FDF765FF24E741F2CF010A48FDF75FFF53
:1033700055E741F2D0010748FDF759FF54E741F204
:10338000D1010448FDF753FF54E702206FE7022004
:103390006DE700BFC48F00080100008070B50546CE
:1033A0000E461446042978D82368A3B1B3F5806F7C
:1033B00011D0B3F5006F0ED0B3F5406F0BD0B3F55D
:1033C000805F08D0B3F5A05F05D0B3F5C05F02D031
:1033D000B3F5E05F67D1A36813B1B3F5007F68D19F
:1033E000E36813B1B3F5004F69D1236913B1B3F5A5
:1033F000804F6AD1A36913B1B3F1007F6BD1E36948
:1034000013B1B3F1004F6CD1236A13B1B3F1804F04
:103410006DD195F8C130DBB2022B6ED095F8C0307B
:10342000012B6CD0012185F8C010022385F8C13032
:10343000226802F4E0506368C3F308020243A36801
:1034400003F400731A43236903F4804343EA020040
:10345000E36803F40042024360692A4B03EA004335
:103460001A43A36903F000731343226A02F08042F7
:103470001A43E36903F000431A432B6803EBC616B3
:10348000D6F8B800204B03401343C6F8B83085F88F
:10349000C110002085F8C00070BD41F28C111B489E
:1034A000FDF7C5FE80E741F28D111848FDF7BFFE1C
:1034B00091E741F28E111548FDF7B9FE90E741F210
:1034C0008F111248FDF7B3FE8FE741F290110F48BC
:1034D000FDF7ADFE8EE741F291110C48FDF7A7FE16
:1034E0008DE741F292110948FDF7A1FE8CE741F208
:1034F00093110648FDF79BFE8BE70220CCE70220E4
:10350000CAE700BF0000FF010020003CC48F000894
:10351000F8B504460D4616461F46052908D039B1B0
:10352000012905D0022903D0032901D0042920D183
:1035300094F8C130DBB2022B00F0F88094F8C03070
:10354000012B00F0F580012384F8C030022384F8B9
:10355000C130052D13D0731E072B00F2E080DFE889
:1035600013F034004700DE008E00DE00DE00DE00D7
:10357000950041F284217048FDF759FED8E7013EDD
:10358000072E1BD8DFE806F0040E1A121A1A1A16B4
:1035900023683A68DA6194F8C130DBB2072B20D196
:1035A000012024E023683A685A62F4E723683A6805
:1035B0009A62F0E723683A68DA62ECE7072384F856
:1035C000C130002384F8C030E5E723683A6803EB94
:1035D000C515C5F89C2094F8C130DBB2072B00F06C
:1035E000A980012384F8C130002084F8C000F8BD10
:1035F000022E28D0082E26D041F2CC214E48FDF7CD
:1036000016FE23683A6803EBC513C3F8A4207B6851
:103610006BB321686B1CDB01CA5822F44052CA50BC
:103620002168CA5878680243CA507B68B3F5005FC6
:1036300016D0B3F5405FCED12368BA6803EBC5134B
:10364000C3F8A820C7E77B68002BDAD0B3F5805F0A
:10365000D7D0B3F5005FD4D0B3F5405FCCD1D0E77D
:103660002368BA6803EBC513C3F89C20B3E722684C
:103670000135ED01535923F440535351ABE723680F
:103680003A6803EBC515C5F8A820A4E7022E2AD096
:10369000082E28D041F2F9212748FDF7C8FD2368FC
:1036A0003A6803EBC513C3F8AC207B687BB3216891
:1036B0006B1CDB01CA5822F44042CA502168CA5828
:1036C000786842EA8002CA507B68B3F5005F17D081
:1036D000B3F5405F7FF47FAF2368BA6803EBC5138F
:1036E000C3F8A82077E77B68002BD8D0B3F5805FBC
:1036F000D5D0B3F5005FD2D0B3F5405FCAD1CEE7E5
:103700002368BA6803EBC513C3F89C2063E72268FB
:103710000135ED01535923F4404353515BE707232F
:1037200084F8C130002384F8C03054E702205EE7FB
:1037300002205CE701205AE7C48F00082DE9F04120
:10374000054617461C460E4611B9531E012B12D9C9
:10375000012E49D0022E4CD0032E4FD0042E05D17D
:10376000B7F5807F07D0B7F5007F04D041F2A331D1
:103770003948FDF75CFD23680BB1022B43D1236967
:103780000BB1082B45D1E3680BB1042B47D163691A
:103790002BB1102B03D0202B01D0302B45D1A369A6
:1037A0000BB1402B47D1E3690BB1802B49D195F880
:1037B000C130DBB2022B4AD095F8C030012B48D083
:1037C0004FF0010885F8C080022385F8C1302346F8
:1037D0003A4631462846FEF7CAFE85F8C1800020E9
:1037E00085F8C000BDE8F081042FC4D0082FB1D106
:1037F000C1E7102FBFD0202FAED1BCE7402FBAD0E9
:10380000802FABD1B7E741F2A4311348FDF70FFD8C
:10381000B5E741F2A5311048FDF709FDB3E741F2E4
:10382000A6310D48FDF703FDB1E741F2A7310A4883
:10383000FDF7FDFCB3E741F2A8310748FDF7F7FCBF
:10384000B1E741F2A9310448FDF7F1FCAFE70220EE
:10385000C8E70220C6E700BFC48F0008002800F0B8
:103860009C8370B582B00446036813B113F00F0F48
:103870002BD0236813F0010F4FD063682BB1B3F541
:10388000803F02D0B3F5A02F25D1B44B5B6803F085
:103890000C03042B2AD0B14B5B6803F00C03082BFC
:1038A0001FD06368B3F5803F7CD0002B40F0A6802A
:1038B00003F1804303F504331A6822F480321A605E
:1038C0001A6822F480221A6071E040F24B11A44879
:1038D000FDF7ADFCCDE740F25111A148FDF7A7FC83
:1038E000D3E79E4B5B6813F4803FDAD04FF400338C
:1038F00093FAA3F3994B19684FF4003393FAA3F3A7
:10390000B3FA83F303F01F03012202FA03F30B421D
:1039100003D06368002B00F04283236813F0020F8A
:1039200000F0DA802369012B00F2A08063691F2B6D
:1039300000F2A280894B5B6813F00C0F00F0A880A6
:10394000864B5B6803F00C03082B00F09B80236917
:10395000002B00F00981012292FAA2F3B3FA83F35B
:1039600003F1845303F584139B001A60FEF73AF9C0
:103970000546022393FAA3F3784B1968022393FABE
:10398000A3F3B3FA83F303F01F03012202FA03F354
:103990000B4240F0D380FEF725F9401B0228E8D9FE
:1039A000032003E36D4A136843F4803313606B4ACA
:1039B000D36A23F00F03A1680B43D3626368002B23
:1039C00036D0FEF70FF905464FF4003393FAA3F310
:1039D000624B19684FF4003393FAA3F3B3FA83F3FD
:1039E00003F01F03012202FA03F30B4295D1FEF705
:1039F000F9F8401B6428E7D90320D7E2B3F5A02FDC
:103A000009D0564B1A6822F480321A601A6822F4E0
:103A100080221A60CBE703F18043A3F53C331A6898
:103A200042F480221A601A6842F480321A60BEE7BB
:103A3000FEF7D8F805464FF4003393FAA3F3474B4B
:103A400019684FF4003393FAA3F3B3FA83F303F046
:103A50001F03012202FA03F30B423FF45EAFFEF7AD
:103A6000C1F8401B6428E6D903209FE240F2891187
:103A70003B48FDF7DCFB59E74FF4C5713848FDF7CB
:103A8000D6FB57E7354B5B6813F4803F7FF45FAF9D
:103A9000022393FAA3F3314B1968022393FAA3F399
:103AA000B3FA83F303F01F03012202FA03F30B427C
:103AB00004D02369934201D0012077E227480368AC
:103AC00023F0F8036169F82292FAA2F2B2FA82F2C4
:103AD00001FA02F213430360236813F0080F00F0A9
:103AE0009880A369012B66D8A369002B69D00121B6
:103AF00091FAA1F2B2FA82F21A4B13449B001960B8
:103B0000FEF770F80546022393FAA3F293FAA3F2A4
:103B100093FAA3F2114A516A93FAA3F3B3FA83F327
:103B200003F01F03012202FA03F30B4271D1FEF7E7
:103B300059F8401B0228E6D9032037E207480368FA
:103B400023F0F8036169F82292FAA2F2B2FA82F243
:103B500001FA02F213430360BEE700BF0010024007
:103B60000090000820819010012393FAA3F3B3FA88
:103B700083F303F1845303F584139B0000221A603E
:103B8000FEF730F80546022393FAA3F3B94B196800
:103B9000022393FAA3F3B3FA83F303F01F03012282
:103BA00002FA03F30B4297D0FEF71CF8401B0228E1
:103BB000E9D90320FAE14FF4E571AF48FDF737FB8F
:103BC00092E7012292FAA2F2B2FA82F2AB4B1344CC
:103BD0009B0000221A60FEF705F80546022393FABF
:103BE000A3F293FAA3F293FAA3F2A24A516A93FAC8
:103BF000A3F3B3FA83F303F01F03012202FA03F3E2
:103C00000B4206D0FDF7EEFF401B0228E6D9032049
:103C1000CCE1236813F0040F00F0C080E368012BAF
:103C200001D9052B26D1934BDB6913F0805F27D197
:103C3000904BDA6942F08052DA61DB6903F080531D
:103C40000193019B01258E4B1B6813F4807F19D0D3
:103C5000E368012B2AD0002B34D103F1804303F514
:103C600004331A6A22F001021A621A6A22F004026C
:103C70001A6220E04FF4FB717F48FDF7D8FAD2E7D3
:103C80000025E0E77E4A136843F480731360FDF774
:103C9000A9FF06467A4B1B6813F4807FD8D1FDF745
:103CA000A1FF801B6428F5D903207FE1714A136AC4
:103CB00043F001031362E368002B41D0FDF792FF4C
:103CC00006462BE0052B09D06A4B1A6A22F0010246
:103CD0001A621A6A22F004021A62ECE7654B1A6A49
:103CE00042F004021A621A6A42F001021A62E2E722
:103CF000604B196A022393FAA3F3B3FA83F303F038
:103D00001F03012202FA03F3194245D1FDF76AFFAE
:103D1000801B41F28833984200F24381022393FAD8
:103D2000A3F293FAA3F3B3FA83F35B0943F002031C
:103D3000022BDDD0022393FAA3F34E4B596AD9E745
:103D4000FDF750FF064615E04A4B196A022393FA25
:103D5000A3F3B3FA83F303F01F03012202FA03F380
:103D6000194219D0FDF73EFF801B41F2883398427B
:103D700000F21981022393FAA3F293FAA3F3B3FAA0
:103D800083F35B0943F00203022BDDD0022393FA95
:103D9000A3F3384B596AD9E7002D73D1E369022B9D
:103DA00076D8E369002B00F00081324A526802F0B5
:103DB0000C02082A00F0DF80022B40F0B080236A5A
:103DC00013B1B3F5803F69D1636A4BB3B3F5802F6C
:103DD00026D0B3F5002F23D0B3F5402F20D0B3F574
:103DE000801F1DD0B3F5A01F1AD0B3F5C01F17D088
:103DF000B3F5E01F14D0B3F5001F11D0B3F5101FB9
:103E00000ED0B3F5201F0BD0B3F5301F08D0B3F59B
:103E1000401F05D0B3F5501F02D0B3F5601F43D14A
:103E20004FF0807393FAA3F3B3FA83F303F184534F
:103E300003F584139B0000221A60FDF7D3FE0546AC
:103E40004FF0007393FAA3F30A4B19684FF0007315
:103E500093FAA3F3B3FA83F303F01F03012202FAE8
:103E600003F3194226D0FDF7BDFE401B0228E7D917
:103E700003209BE000100240009000082081901079
:103E8000007000404C4AD36923F08053D36185E72A
:103E900040F23A214948FDF7CAF982E740F243214E
:103EA0004648FDF7C4F98FE74FF411714348FDF719
:103EB000BEF9B5E740494B6823F47413626A206A7F
:103EC000024313434B604FF0807393FAA3F3B3FAAA
:103ED00083F303F1845303F584139B0001221A60DA
:103EE000FDF780FE04464FF0007393FAA3F3324BC4
:103EF00019684FF0007393FAA3F3B3FA83F303F056
:103F00001F03012202FA03F3194206D1FDF76AFEEC
:103F1000001B0228E7D9032048E0002046E04FF0CC
:103F2000807393FAA3F3B3FA83F303F1845303F595
:103F300084139B0000221A60FDF754FE04464FF0E4
:103F4000007393FAA3F31C4B19684FF0007393FAB4
:103F5000A3F3B3FA83F303F01F03012202FA03F37E
:103F6000194206D0FDF73EFE001B0228E7D90320C8
:103F70001CE000201AE0012B1AD00F4B5B6803F401
:103F80008031226A914201D001200FE003F47013C6
:103F9000626A93420ED0012008E0012070470120A0
:103FA00004E0032002E0032000E0002002B070BD26
:103FB0000120FBE70020F9E7001002400090000814
:103FC00010B4174B5C6804F00C03082B26D104F4E2
:103FD00070124FF4701393FAA3F3B3FA83F322FA37
:103FE00003F31049C85C0E4BDB6A03F00F030F228A
:103FF00092FAA2F2B2FA82F2D3400B441A7C14F481
:10400000803F05D1084B03FB00F05DF8044B70477F
:10401000064BB3FBF2F300FB03F0F6E70348F4E7CB
:1040200000100240808E000800093D0000127A0056
:10403000002800F01C8170B504460D46036813F09B
:104040000F0F14D0022D18D88B4B1B6803F00703F9
:10405000AB4218D2884A136823F007032B4313603E
:10406000136803F00703AB420DD0012070BD40F28E
:10407000C3218248FDF7DBF8E4E74FF431717F4854
:10408000FDF7D5F8E0E7236813F0020F18D0A36816
:104090007BB1802B0DD0902B0BD0A02B09D0B02B57
:1040A00007D0C02B05D0D02B03D0E02B01D0F02BB4
:1040B0003ED1734A536823F0F003A1680B43536069
:1040C000236813F0010F69D06368022B36D8636848
:1040D000012B39D0022B4CD0022292FAA2F2684A6C
:1040E0001068022292FAA2F2B2FA82F202F01F02E1
:1040F000012101FA02F2104200F0BB8060494A68D7
:1041000022F0030213434B60FDF76CFD06465C4B47
:104110005B6803F00C036268B3EB820F3ED0FDF7DF
:1041200061FD801B41F288339842F0D903209DE75E
:1041300040F2DB215148FDF77AF8BAE740F2E2217C
:104140004E48FDF774F8C2E74FF4003292FAA2F23B
:104150004B4A10684FF4003292FAA2F2B2FA82F29D
:1041600002F01F02012101FA02F20242C6D101202F
:104170007CE74FF0007292FAA2F2414A10684FF0C9
:10418000007292FAA2F2B2FA82F202F01F02012148
:1041900001FA02F21042B1D1012067E7364B1B68E9
:1041A00003F00703AB420CD9334A136823F007032B
:1041B0002B431360136803F00703AB4201D00120C7
:1041C00054E7236813F0040F14D0E3685BB1B3F530
:1041D000806F08D0B3F5A06F05D0B3F5C06F02D0E3
:1041E000B3F5E06F37D1264A536823F4E063E16802
:1041F0000B435360236813F0080F15D023695BB19C
:10420000B3F5806F08D0B3F5A06F05D0B3F5C06FDC
:1042100002D0B3F5E06F24D1194A536823F46053F8
:10422000216943EAC1035360FFF7CAFE144B5B6880
:1042300003F0F003F02292FAA2F2B2FA82F2D34033
:10424000104AD35CD840104B1860104B1868FDF72B
:1042500087FC00200AE740F21E310848FCF7E7FF20
:10426000C1E740F225310548FCF7E1FFD4E7012022
:1042700070470120FAE600BF0020024000900008CD
:1042800000100240508E0008000000203C01002079
:10429000014B1868704700BF0000002008B5FFF709
:1042A000F7FF074B5B6803F4E0634FF4E06292FAB8
:1042B000A2F2B2FA82F2D340024AD35CD84008BDDF
:1042C00000100240608E000808B5FFF7E1FF074BC1
:1042D0005B6803F460534FF4605292FAA2F2B2FAB0
:1042E00082F2D340024AD35CD84008BD001002409D
:1042F000608E0008F0B583B004460268A04B9A4275
:1043000000F2D180236813F4803F54D063684BB12E
:10431000B3F5807F06D0B3F5007F03D0B3F5407FBF
:1043200040F0C680974BDB6913F0805F40F0C5809A
:10433000944BDA6942F08052DA61DB6903F0805312
:104340000193019B0125904B1B6813F4807F00F0C3
:10435000B6808C4B1B6A13F4407322D0626802F45F
:1043600040729A421DD08748016A21F440764FF48A
:10437000803393FAA3F2B2FA82F2844F3A44920065
:104380004FF0010CC2F800C093FAA3F3B3FA83F321
:104390003B449B0000221A60066211F0010F40F0BE
:1043A000A380784A136A23F4407361680B43136255
:1043B000002D40F0C580236813F0010F0AD0A368D8
:1043C000032B00F2C2806F4A136B23F00303A16832
:1043D0000B431363236813F0200F0BD0E36813B172
:1043E000102B40F0B780674A136B23F01003E1688D
:1043F0000B431363236813F0800F31D0236943B359
:10440000B3F5807F25D0B3F5887F22D0B3F5907FB8
:104410001FD0B3F5987F1CD0B3F5A07F19D0B3F5AA
:10442000A87F16D0B3F5B07F13D0B3F5B87F10D006
:10443000B3F5C07F0DD0B3F5C87F0AD0B3F5D07FF8
:1044400007D0B3F5D87F04D040F25D115048FCF797
:10445000EEFE4C4AD36A23F4F87321690B43D3620E
:10446000236813F4805F0BD0636913B1B3F5807FC9
:1044700075D1444A136B23F4807361690B43136352
:10448000236813F4804F78D0A36913B1B3F5805F2C
:104490006BD13C4A136B23F48053A1690B43136324
:1044A000002003B0F0BD72213948FCF7C0FE29E7B7
:1044B00078213748FCF7BBFE34E7002543E7324A52
:1044C000136843F480731360FDF78CFB06462E4B94
:1044D0001B6813F4807F7FF43CAFFDF783FB801BE8
:1044E0006428F4D90320DCE7FDF77CFB064615E0E1
:1044F000244B196A022393FAA3F3B3FA83F303F06C
:104500001F03012202FA03F30B427FF44AAFFDF7C7
:1045100069FB801B41F2883398422CD8022393FA1E
:10452000A3F293FAA3F3B3FA83F35B0943F0020314
:10453000022BDDD0022393FAA3F3124B596AD9E779
:10454000D36923F08053D36135E7BE211048FCF7CF
:104550006EFE38E7E0210E48FCF769FE43E74FF4B2
:10456000C7710B48FCF763FE83E740F2D11108489E
:10457000FCF75DFE8DE7032093E7002091E700BF85
:10458000A150010000100240007000400081901016
:1045900038900008026852E8003F23F0C00342E868
:1045A00000310029F6D1202383677047026852E862
:1045B000003F23F4907342E800310029F6D10268ED
:1045C00002F1080353E8003F23F00103083242E8F8
:1045D00000310029F3D1036E012B05D02023C367DE
:1045E0000023036643667047026852E8003F23F0E9
:1045F000100342E800310029F6D1EFE710B5846FCF
:10460000202C48D1002948D0002A48D090F8743096
:10461000012B46D013460446012280F87420C16461
:10462000A0F85030A0F852300022C0F8802021229B
:104630008267C26E8AB11C499162C26E1B49D16207
:10464000C26E1B491163C26E002151630268283299
:10465000C16CC06EFDF722FC98B9236840221A6233
:10466000002384F87430226802F1080353E8003F05
:1046700043F08003083242E800310029F3D10020E2
:104680000AE01023C4F88030002384F8743020231B
:10469000A367012000E0022010BD0120FCE70120FB
:1046A000FAE70220F8E700BFB54600081D470008FA
:1046B0002B47000808B5416A8369202B18D00023D6
:1046C000A1F852300A6802F1080353E8003F23F0D2
:1046D0008003083242E800300028F3D10A6852E82B
:1046E000003F43F0400342E800300028F6D108BD07
:1046F0000846FCF701FFFAE708B5026852E8003FF8
:1047000023F0400342E800310029F6D120238367DB
:1047100000238366FCF7F0FE08BD704708B5406AC9
:10472000FFF7FBFF08BD7047704738B5446AA26FBA
:10473000E56F23689B6813F0800F01D0212A10D009
:1047400023689B6813F0400F01D0222D10D0D4F8BD
:10475000803043F01003C4F880302046FFF7E4FFB8
:1047600038BD0023A4F852302046FFF713FFE7E7D7
:104770000023A4F85A302046FFF718FFE7E708B5F2
:10478000406A0023A0F85A30A0F85230FFF7CCFF5F
:1047900008BD704770B504460168CB6908688D682C
:1047A00040F60F021A400AD113F0200F07D010F084
:1047B000200F04D0636E0BB12046984770BD002ACD
:1047C00000F0968015F0010203D1A74E304200F0B0
:1047D0008F8013F0010F09D010F4807F06D00125DF
:1047E0000D62D4F880102943C4F8801013F0020F32
:1047F00009D042B1216802250D62D4F8801041F041
:104800000401C4F8801013F0040F09D042B12168EC
:1048100004250D62D4F8801041F00201C4F8801024
:1048200013F0080F0BD010F0200F00D13AB122681E
:1048300008211162D4F880200A43C4F8802013F4C0
:10484000006F0CD010F0806F09D022684FF4006127
:104850001162D4F8802042F02002C4F88020D4F8FD
:104860008020002AAAD013F0200F06D010F0200FCD
:1048700003D0636E0BB120469847D4F8802023689C
:104880009B6813F0400F02D112F0280F29D0204668
:10489000FFF78CFE23689B6813F0400F1DD0226841
:1048A00002F1080353E8003F23F04003083242E8D6
:1048B00000310029F3D1236F5BB16C4A5A63206F3A
:1048C000FDF75CFB00283FF479AF206F436B9847FE
:1048D00074E72046FFF728FF70E72046FFF724FF24
:1048E0006CE72046FFF720FF0023C4F8803065E71F
:1048F000226E012A15D013F4801F03D015F4800F07
:1049000040F09E8013F0800F00F0A18010F0800F27
:1049100000F09D80A36E002B3FF450AF20469847D7
:104920004CE713F0100FE6D010F0100FE3D0102377
:104930000B6223689B6813F0400F4BD0226F136803
:104940005B689BB2002B3FF439AFB4F85810994222
:104950007FF634AFA4F85A309369202B30D0226808
:1049600052E8003F23F4807342E800310029F6D179
:10497000226802F1080353E8003F23F001030832E4
:1049800042E800310029F3D1226802F1080353E81C
:10499000003F23F04003083242E800310029F3D100
:1049A0002023E36700232366226852E8003F23F0B8
:1049B000100342E800310029F6D1206FFDF7BCFA60
:1049C000B4F85810B4F85A30C91A89B22046FFF723
:1049D000E0FEF3E6B4F85810B4F85A30C91A89B2B8
:1049E000B4F85A309BB2002B3FF4E8AE00293FF4F4
:1049F000E5AE226852E8003F23F4907342E80030AD
:104A00000028F6D1226802F1080353E8003F23F0A2
:104A10000103083242E800300028F3D12023E36785
:104A2000002323666366226852E8003F23F01003E8
:104A300042E800300028F6D12046FFF7AAFEBDE686
:104A40004FF480130B62204600F0ECFBB6E613F047
:104A5000400F3FF4B3AE10F0400F3FF4AFAE20462E
:104A6000FFF74AFEAAE600BF200100047F470008C6
:104A700008B5406A036E012B02D0FFF754FE08BD53
:104A8000B0F858104908FFF784FEF8E708B5426A05
:104A90008369202B28D00023A2F85A30116851E8EE
:104AA000003F23F4807341E800300028F6D11168FC
:104AB00001F1080353E8003F23F00103083141E806
:104AC00000300028F3D1116801F1080353E8003FDA
:104AD00023F04003083141E800300028F3D12023BF
:104AE000D367136E012B06D0136E012B0DD0104629
:104AF000FCF7A8FD08BD116851E8003F23F0100342
:104B000041E800300028F6D1EEE7B2F85810104620
:104B1000FFF73FFEEEE7000010B504464268884B01
:104B20009A4270D8A368B3F1805F03D013B1B3F594
:104B3000805F6ED1E368B3F5805F06D02BB1B3F52B
:104B4000405F02D0B3F5005F69D1236A13B1B3F5BA
:104B5000006F6AD123692BB1B3F5806F02D0B3F532
:104B6000C06F68D1636933F00C0200D123B940F6FD
:104B700045317448FCF75BFBA36943B1B3F5807F13
:104B800005D0B3F5007F02D0B3F5407F59D1E3697A
:104B900013B1B3F5004F5AD1A36822691343626978
:104BA0001343E269134321680868674A02401343CC
:104BB0000B602268536823F44053E1680B43536051
:104BC000A269236A1A4321688B6823F43063134374
:104BD0008B6023685D4A93423FD05D4A934252D036
:104BE00002F5806293424AD01023E269B2F5004F89
:104BF0004BD0082B00F29E80DFE803F0778D759C88
:104C0000909C9C9C930040F63F314E48FCF70FFB74
:104C100088E74FF434614B48FCF709FB8AE740F61C
:104C200041314848FCF703FB8FE740F642314548E5
:104C3000FCF7FDFA8EE740F644314248FCF7F7FAFC
:104C400090E740F646313F48FCF7F1FA9FE740F61F
:104C500047313C48FCF7EBFA9EE73E4B1B6B03F0F9
:104C60000303032B09D8DFE803F00204060C00233A
:104C7000BBE70423B9E70823B7E71023B5E7002310
:104C8000B3E70223B1E70023AFE7082B4CD8DFE8F6
:104C900003F00822284B254B4B4B05004FF40040F6
:104CA00003E0FFF7FBFA002840D06268530803EBEB
:104CB0004003B3FBF2F39BB2A3F110014FF6EF7286
:104CC000914235D823F00F02C3F342031343226805
:104CD000D36000201BE0FFF7F7FAE4E7FFF770F975
:104CE000E1E71D48E1E71C4802E0FFF7D7FA18B3F7
:104CF000636800EB5300B0FBF3F080B2A0F1100248
:104D00004FF6EF739A4219D82368D8600020002329
:104D10006366A36610BDFFF7D7FAE8E7FFF750F91F
:104D2000E5E74FF40040E3E70120F0E70020EEE77D
:104D30000120ECE70120EAE70020E8E70120E6E7B0
:104D40004054890074900008F369FFEF0038014077
:104D5000004400400010024000127A0010B50446E2
:104D6000436AFF2B00F29080636A13F0010F0CD0AE
:104D7000A36A1BB1B3F5003F40F08C8022685368F2
:104D800023F40033A16A0B435360636A13F0020FEC
:104D90000CD0E36A1BB1B3F5803F40F081802268FC
:104DA000536823F48033E16A0B435360636A13F062
:104DB000040F0BD0236B13B1B3F5802F76D122688B
:104DC000536823F48023216B0B435360636A13F011
:104DD000080F0BD0636B13B1B3F5004F6CD1226891
:104DE000536823F40043616B0B435360636A13F011
:104DF000100F0BD0A36B13B1B3F5805F62D12268A3
:104E0000936823F48053A16B0B439360636A13F0A0
:104E1000200F0BD0E36B13B1B3F5005F58D12268BC
:104E2000936823F40053E16B0B439360636A13F0C0
:104E3000400F18D022683C4B9A4204D040F6F7311C
:104E40003A48FCF7F4F9236C13B1B3F5801F45D150
:104E50002268536823F48013216C0B435360236C46
:104E6000B3F5801F40D0636A13F0800F0BD0A36CA2
:104E700013B1B3F5002F50D12268536823F40023F7
:104E8000A16C0B43536010BD40F6C8312748FCF7B6
:104E9000CEF969E740F6CD312448FCF7C8F96DE753
:104EA00040F6D4312148FCF7C2F978E740F6DB310F
:104EB0001E48FCF7BCF982E740F6E2311B48FCF7DC
:104EC000B6F98CE740F6E9311848FCF7B0F996E7F7
:104ED0004FF43F611548FCF7AAF9A0E740F6F83116
:104EE0001248FCF7A4F9B3E7636C43B1B3F5001FB4
:104EF00005D0B3F5800F02D0B3F5C00F07D12268FB
:104F0000536823F4C003616C0B435360ABE740F676
:104F1000FD310648FCF78BF9F1E740F605410348FF
:104F2000FCF785F9A8E700BF00380140749000083D
:104F30002DE9F04104460F4616469846069D236823
:104F4000DB6937EA03030CBF01230023B34251D1CD
:104F5000B5F1FF3FF3D0FCF745FEA0EB0800A842F7
:104F60002BD855B323681A6812F0040FE7D0DA691A
:104F700012F4006FE3D04FF400621A62226852E824
:104F8000003F23F4D07342E800310029F6D12268B3
:104F900002F1080353E8003F23F00103083242E81E
:104FA00000310029F3D12023A367E367C4F88030E0
:104FB000002384F8743003201DE0226852E8003F8B
:104FC00023F4D07342E800310029F6D1226802F1BF
:104FD000080353E8003F23F00103083242E80031A0
:104FE0000029F3D12023A367E367002384F87430FA
:104FF000032000E00020BDE8F08130B583B0044616
:105000000023C0F88030FCF7EDFD054623681B68DF
:1050100013F0080F0DD123681B6813F0040F16D18D
:105020002023A367E3670020206684F8740003B0A0
:1050300030BD6FF07E430093034600224FF4001111
:105040002046FFF775FF0028E5D00320EFE76FF05B
:105050007E4300932B4600224FF480012046FFF749
:1050600067FF0028DCD00320E1E70000002855D0CE
:1050700010B504468369002B34D00368284A934254
:105080000CD0A2F57442934208D002F5806293429C
:1050900004D04FF496712348FCF7C9F8A36F002B96
:1050A00032D02423A3672268136823F0010313601E
:1050B0002046FFF731FD012813D0636A53BB2268F5
:1050C000536823F4904353602268936823F02A03C3
:1050D00093602268136843F0010313602046FFF7D2
:1050E0008CFF10BD03680E4A9342D7D0A2F57442DC
:1050F0009342D3D002F580629342CFD040F2311177
:105100000848FCF794F8C9E784F874302046FCF7A7
:105110004BF9C6E72046FFF721FED0E70120704794
:10512000003801407490000810B504464165A0F8AD
:1051300058200023C0F880302223C367036F93B147
:1051400021499962036F2149D962036F204919638C
:10515000036F0021596301681346426D2431006FCB
:10516000FCF79CFE28BB002384F87430226852E8C8
:10517000003F43F4807342E800310029F6D12268F1
:1051800002F1080353E8003F43F00103083242E80C
:1051900000310029F3D1226802F1080353E8003FEF
:1051A00043F04003083242E800310029F3D10020E7
:1051B00010BD1023C4F88030002384F874302023FD
:1051C000E3670120F4E700BF8D4A0008714A000838
:1051D0002B47000838B5C36F202B1BD1E1B1EAB1D2
:1051E00090F87430012B1BD0012380F87430002319
:1051F000036603685B6813F4000F08D0046854E882
:10520000003F43F0806344E80035002DF6D1FFF7FE
:105210008BFF00E0022038BD0120FCE70120FAE707
:105220000220F8E770470000DFF834D00D480E493F
:105230000E4A002302E0D458C4500433C4188C42F0
:10524000F9D30B4A0B4C002301E013600432A24255
:10525000FBD3FCF77FF800F019F8FBF7D4FFFEE76B
:10526000003000200000002010030020D093000830
:105270001003002084060020FEE7002101F0B8BAE8
:10528000014B1868704700BF4001002070B50D4EFB
:105290000D4CA41BA4100025A54209D10B4E0C4CAB
:1052A00003F0C8FDA41BA4100025A54205D170BDC4
:1052B00056F8253098470135EEE756F825309847DF
:1052C0000135F2E7C8930008C8930008C8930008A6
:1052D000CC93000802440346934200D1704703F880
:1052E000011BF9E72DE9FF4755EC104B0D9FDDF849
:1052F00030A0002D0E4691461946B8BF22462B46D7
:1053000027F02007BBBF05F100431D4600232D23D6
:10531000B8BF1446462F0B7004D0452F00D101367C
:10532000022100E0032103AB019302AB009332465C
:10533000534645EC104B01F0FBFA472F804602D153
:1053400019F0010F26D0462F08EB060911D198F865
:105350000030302B0AD10022002320462946FBF7DB
:105360005BFB18B9C6F10106CAF80060DAF8003034
:1053700099440022002320462946FBF74DFB38B90B
:105380003022039B4B4505D2591C03911A70F8E754
:10539000CDF80C90039B0E9AA3EB080340461360D4
:1053A00004B0BDE8F087F7B500290446BABF49420A
:1053B0002D232B23092904F8022B437020DD0DF146
:1053C00007031F460A2691FBF6F506FB151130313F
:1053D000092D03F8011C03F1FF32294609DC3031A5
:1053E000023B02F8011CBB42224604D3101A03B050
:1053F000F0BD1346E7E713F8012B04F8012BF2E7A1
:10540000302319448370021DC170EFE72DE9F04F7E
:105410008DB00C46DDF8588016461F46054602F052
:1054200031FC036804931846FBF798FB00230A93AA
:10543000D8F800300590073323F0070303F1080282
:1054400094F818A0D4F800B0C8F80020D3E90023DD
:10545000C4E91223D4E9128929F000430793CDF857
:1054600018804FF0FF32A74BDDE90601FBF7D0FBB8
:1054700070BB4FF0FF32A34BDDE90601FBF7E0FA0A
:1054800030BB0022002340464946FBF7CFFA10B15B
:105490002D2384F843309C4A9C4BBAF1470F8CBFB4
:1054A0009046984603232BF00402236122604FF0BC
:1054B0000009009733460BAA2146284600F0E6F97A
:1054C000013040F08D804FF0FF300DB0BDE8F08F1F
:1054D00042464B4640464946FBF79AFB10B18C4A80
:1054E0008C4BDAE761684B1C4BF480620AA83ED112
:1054F000062363600023CDE9020309AB009349EC66
:10550000108B0DF123032260CDF804A061682846BA
:10551000FFF7E8FE0AF0DF03472B804609D1099B1D
:10552000D81C02DB6268934247DDAAF1020A5FFAE7
:105530008AFABAF1650F099924D80139524604F163
:1055400050000991FFF72FFF0A9A1318012A81468C
:10555000236102DC2268D10701D5013323619DF864
:105560002330002BA5D02D2384F84330A1E7BAF1D6
:10557000670F00F07781BAF1470FBBD10029B9D18D
:105580000123B6E7BAF1660F19D1002963680CDD73
:10559000216113B92268D20702D501330B4423617C
:1055A000099BA3654FF00009D9E713B92268D0071A
:1055B00001D50233F3E70123F1E74FF0670ADDE994
:1055C0000932934205DB22682361D107E8D5013314
:1055D000E5E7002BD4BFC3F1020301231344DEE748
:1055E00023685A0507D42369424631462846B847FE
:1055F00001302BD167E7BAF1650F40F2DC80002261
:105600000023D4E91201FBF707FA002833D0012365
:10561000414A31462846B84701303FF454AFDDE9EE
:1056200009239A4202DB2368D8070FD5DDE904235A
:1056300031462846B84701303FF445AF4FF00008E7
:1056400004F11A090A9B013B434509DC23689B07C7
:1056500000F10381E0680B9B9842B8BF184634E71D
:1056600001234A4631462846B84701303FF42BAF64
:1056700008F10108E6E7099B002B2BDC0123264AF1
:1056800031462846B84701303FF41DAF099B23B986
:105690000A9B13B92368D907D8D5DDE9042331461D
:1056A0002846B84701303FF40EAF4FF0000904F12F
:1056B0001A0A099B5B424B4501DC0A9B94E70123D4
:1056C000524631462846B84701303FF4FCAE09F156
:1056D0000109EEE70A9AA36D9A42A8BF1A46002A6A
:1056E000914607DD1346314642462846B847013009
:1056F0003FF4E9AE04F11A034FF0000B29EAE9790F
:10570000069315E0FFFFEF7FB8900008B490000803
:10571000C0900008BC900008C49000080123069ABD
:1057200031462846B84701303FF4CDAE0BF1010BAE
:10573000D4F858A0AAEB09035B45EFDCDDE90923A7
:105740009A42D04415DB2368DA0712D40A9B0999E0
:10575000A3EB0A02A3EB010A9245A8BF9246BAF155
:10576000000F0EDC4FF000082AEAEA7A04F11A0969
:1057700019E0DDE9042331462846B8470130E5D178
:10578000A1E65346424631462846B8470130E9D1A2
:1057900099E601234A4631462846B84701303FF48E
:1057A00092AE08F10108DDE909239B1AA3EB0A0375
:1057B0004345EEDC4AE70A9A012A01DCDB073AD5C9
:1057C0000123424631462846B84701303FF47BAEBC
:1057D000DDE9042331462846B847013008F10108C5
:1057E0003FF471AE0A9B002203F1FF3AD4E91201A3
:1057F0000023FBF711F9C8B9534642463146284603
:10580000B84701300ED15EE60123524631462846A4
:10581000B84701303FF457AE08F101080A9B013B3D
:105820004345F1DC4B4604F15002DEE64FF0000840
:1058300004F11A0AF2E70123DFE701234A46314661
:105840002846B84701303FF43EAE08F10108E3684E
:105850000B9A9B1A4345F0DCFCE64FF0000804F17C
:105860001909F4E700293FF48BAE0023CDE90203C8
:1058700009AB009349EC108B2260CDF804A00DF128
:1058800023032846FFF72EFD804648E62DE9F04722
:1058900091461F468A680B69DDF820809342B8BFA5
:1058A0001346C9F8003091F8432006460C4612B161
:1058B0000133C9F800302368990642BFD9F8003097
:1058C0000233C9F80030256815F0060507D104F148
:1058D000190AE368D9F800209B1AAB4228DC94F837
:1058E00043302268003318BF012392062DD404F1FF
:1058F000430239463046C047013020D02368E5686E
:10590000D9F8002003F00603042B08BFAD1AA368E2
:1059100022690CBF25EAE57500259342C4BF9B1A96
:10592000ED184FF000091A344D451AD1002008E057
:105930000123524639463046C047013003D14FF06B
:10594000FF30BDE8F0870135C3E7E1185A1C30206D
:1059500081F84300224494F8451082F84310023342
:10596000C5E70123224639463046C0470130E6D01C
:1059700009F10109D8E700002DE9F04301F1430CDA
:105980000C46097E85B06E291746064698460C9A45
:1059900000F0B38022D8632936D00AD8002900F05D
:1059A000B980582900F0838004F1420584F8421040
:1059B00032E0642901D06929F6D120681368050610
:1059C00003F104012AD51B681160002B03DA2D2294
:1059D0005B4284F843206F480A2239E0732900F0C3
:1059E0009D8008D86F2920D07029DDD1236843F02D
:1059F0002003236003E0752917D07829D4D17823B8
:105A000084F84530644855E01368191D1B6811601F
:105A100004F1420584F8423001238CE01B681160D8
:105A200010F0400F18BF1BB2CFE713682568181D90
:105A30001060280601D51B6802E06806FBD51B88AC
:105A400054486F2914BF0A220822002184F8431009
:105A50006568A560002DC0F29580216821F00401E1
:105A60002160002B3DD1002D40F08E806546082A34
:105A70000BD12368DB0708D5236962689A42DEBF31
:105A8000302305F8013C05F1FF35ACEB050323613C
:105A9000CDF800803B4603AA21463046FFF7F6FECC
:105AA00001304DD14FF0FF3005B0BDE8F0833948EB
:105AB00084F84510136821681D1D1B6815600A06CF
:105AC0000BD5CA0744BF41F0200121601BB92268F1
:105AD00022F0200222601022B7E74D0648BF9BB299
